:020000040000FA
:02000000742862
:040002000034003492
:080008008B13A200030EA300FC
:100010000C1B1E200B191120230E8300A20E220E92
:10002000090007181628071C1A28080007100030B6
:1000300081000800071410308100080024182A28C5
:10004000A41833281E08A60024141F15D4209F14BA
:100050000C1308001E08A5002410A4141F11D4209E
:100060009F140C1308001E08A70007142410A410E6
:1000700057203D209F140C1308002730AB00BF30E1
:100080002B02031C4628B630AA0008007F302B0242
:10009000031C4D28B730AA0008003F302B02031C78
:1000A0005428B830AA000800B930AA000800273048
:1000B000A900290C290C3F39A80083302807A80083
:1000C00008000F3982078834BB3494349134A33448
:1000D000C134C0349B34803481348234E034CC3435
:0800E000B034C434C63408003A
:0800E800A4208420BE20B620F4
:1000F000C6207A28250C7F39203E9500260C7F39B2
:10010000203E9B009F147A288316BB3092008312F6
:100110009D309500971317139712171297151715FF
:100120009710171020309B009D161D129D151D1550
:100130009D141D148316031364005730810083122D
:100140000313FF3092000800831603178801081478
:1001500088148901831603138501850987018801A5
:100160008312031385018701880108008316031396
:100170006400573081008330810008008316031328
:100180009F018312031387309F0008008316031317
:100190000C170B17831203138B170800FA30A000FB
:1001A000D420A00BD0280800FA30A100A10BD6283B
:0C01B00008008316031321300F0808001C
:02400E00D420BC
:02401000FF3F70
:00000001FF
