:020000040000FA
:0200000088284E
:040002000034003492
:080008008B13A200030EA300FC
:100010000C1B72200B194F208C1A31200C1A152042
:10002000230E8300A20E220E090036181928361C52
:100030002528B6182028303025079900B614080066
:100040002C309900B61036140800B6182C28303021
:1000500026079900B61408000A309900B610361029
:10006000080036193528361D4228B6193B281A08CB
:10007000B700B61508002C309A02031D0800B6110F
:1000800036150800B61848281A08B800B614080033
:100090000A309A02031D0800B611361108002D0817
:1000A0001E3C031D5928AD0106148614061586153D
:1000B00006162D08A602031986102D08A50203199D
:1000C00006112D08061B0A3C061F023C0319861167
:1000D0002D08061B0A3C061F023C03190612AD0A36
:1000E0000B11080024187D281E0EB400340C0739AB
:1000F000023EA60024141F1585281E0EB500350CDF
:100100000739023EA50024101F119F140C1308008C
:100110004821162167216F213B217C218F28081956
:1001200004212708013C03199F282708023C0319D2
:100130009E282708003C0319A6288F288F28A8206E
:1001400029089B002A08950006118F289F148F28E4
:10015000831203138B138312031701308D00831650
:1001600003178C130C14831203170C088312031348
:10017000AA00831203138B17831203138312031332
:100180008B138312031700308D00831603178C1313
:100190000C14831203170C0883120313A900831293
:1001A00003138B1783120313080083120317003005
:1001B0008D00831203131B08831203178C00831610
:1001C00003178C130C158B1355308D00AA308D003E
:1001D0008C140C11831203138312031701308D004A
:1001E000831203131508831203178C008316031759
:1001F0008C130C158B1355308D00AA308D008C1488
:100200000C11831203138F2808190429A70AFA3046
:10021000A800A80B0929FA30A800A80B0D29270867
:10022000033C031D0800A701860108008316BB30AC
:10023000920083129D30950097131713971217128F
:10024000971517159710171020309B009D161D123B
:100250009D151D159D141D1483160313640057303E
:10026000810083120313FF309200080083160313EA
:1002700061300F08080083160313811281150111E4
:1002800081100110831203139C3081000B110800B0
:100290008316031788010814881489018316031331
:1002A0008501850987018801880986010617861757
:1002B000831203138601850187018801A701AD011F
:1002C0000230A5000230A6000230AE0008008316FE
:1002D00003139F018312031387309F0008008316C6
:1002E00003130C170B178C160C168B160B17831297
:1002F00003138B170B11080083160313181298169B
:100300001815181383160317871183160313193052
:1003100099009A0183120313981718131816831261
:1003200003130800FA30A0009821A00B94290800BC
:0A033000FA30A100A10B9A29080081
:02400E00D420BC
:02401000FF3F70
:00000001FF
